{
  "contractName": "KYCContract",
  "abi": [
    {
      "inputs": [],
      "stateMutability": "nonpayable",
      "type": "constructor"
    },
    {
      "anonymous": false,
      "inputs": [
        {
          "indexed": true,
          "internalType": "uint256",
          "name": "customerId",
          "type": "uint256"
        },
        {
          "indexed": true,
          "internalType": "uint256",
          "name": "bankId",
          "type": "uint256"
        }
      ],
      "name": "AccessDenied",
      "type": "event"
    },
    {
      "anonymous": false,
      "inputs": [
        {
          "indexed": true,
          "internalType": "uint256",
          "name": "customerId",
          "type": "uint256"
        },
        {
          "indexed": true,
          "internalType": "uint256",
          "name": "bankId",
          "type": "uint256"
        }
      ],
      "name": "AccessGranted",
      "type": "event"
    },
    {
      "anonymous": false,
      "inputs": [
        {
          "indexed": true,
          "internalType": "address",
          "name": "adminAddress",
          "type": "address"
        }
      ],
      "name": "AdminAdded",
      "type": "event"
    },
    {
      "anonymous": false,
      "inputs": [
        {
          "indexed": true,
          "internalType": "uint256",
          "name": "bankId",
          "type": "uint256"
        },
        {
          "indexed": true,
          "internalType": "address",
          "name": "adminAddress",
          "type": "address"
        }
      ],
      "name": "BankApproved",
      "type": "event"
    },
    {
      "anonymous": false,
      "inputs": [
        {
          "indexed": true,
          "internalType": "uint256",
          "name": "bankId",
          "type": "uint256"
        },
        {
          "indexed": true,
          "internalType": "address",
          "name": "bankAddress",
          "type": "address"
        }
      ],
      "name": "BankRegistered",
      "type": "event"
    },
    {
      "anonymous": false,
      "inputs": [
        {
          "indexed": true,
          "internalType": "uint256",
          "name": "customerId",
          "type": "uint256"
        },
        {
          "indexed": true,
          "internalType": "uint256",
          "name": "bankId",
          "type": "uint256"
        },
        {
          "indexed": false,
          "internalType": "string",
          "name": "bankName",
          "type": "string"
        }
      ],
      "name": "BankRequestedAccess",
      "type": "event"
    },
    {
      "anonymous": false,
      "inputs": [
        {
          "indexed": true,
          "internalType": "uint256",
          "name": "customerId",
          "type": "uint256"
        },
        {
          "indexed": true,
          "internalType": "uint256",
          "name": "bankId",
          "type": "uint256"
        }
      ],
      "name": "CustomerApproved",
      "type": "event"
    },
    {
      "anonymous": false,
      "inputs": [
        {
          "indexed": true,
          "internalType": "uint256",
          "name": "customerId",
          "type": "uint256"
        },
        {
          "indexed": true,
          "internalType": "address",
          "name": "customerWallet",
          "type": "address"
        }
      ],
      "name": "CustomerRegistered",
      "type": "event"
    },
    {
      "anonymous": false,
      "inputs": [
        {
          "indexed": true,
          "internalType": "uint256",
          "name": "customerId",
          "type": "uint256"
        },
        {
          "indexed": true,
          "internalType": "uint256",
          "name": "bankId",
          "type": "uint256"
        }
      ],
      "name": "CustomerRejected",
      "type": "event"
    },
    {
      "anonymous": false,
      "inputs": [
        {
          "indexed": true,
          "internalType": "uint256",
          "name": "customerId",
          "type": "uint256"
        },
        {
          "indexed": false,
          "internalType": "string",
          "name": "verificationHash",
          "type": "string"
        }
      ],
      "name": "CustomerVerified",
      "type": "event"
    },
    {
      "anonymous": false,
      "inputs": [
        {
          "indexed": true,
          "internalType": "uint256",
          "name": "customerId",
          "type": "uint256"
        },
        {
          "indexed": false,
          "internalType": "uint256",
          "name": "documentCount",
          "type": "uint256"
        }
      ],
      "name": "DocumentsAdded",
      "type": "event"
    },
    {
      "anonymous": false,
      "inputs": [
        {
          "indexed": true,
          "internalType": "uint256",
          "name": "customerId",
          "type": "uint256"
        },
        {
          "indexed": false,
          "internalType": "enum KYCContract.CustomerStatus",
          "name": "newStatus",
          "type": "uint8"
        }
      ],
      "name": "StatusChanged",
      "type": "event"
    },
    {
      "inputs": [],
      "name": "admin",
      "outputs": [
        {
          "internalType": "address",
          "name": "",
          "type": "address"
        }
      ],
      "stateMutability": "view",
      "type": "function",
      "constant": true
    },
    {
      "inputs": [
        {
          "internalType": "address",
          "name": "",
          "type": "address"
        }
      ],
      "name": "adminPasswordHashes",
      "outputs": [
        {
          "internalType": "string",
          "name": "",
          "type": "string"
        }
      ],
      "stateMutability": "view",
      "type": "function",
      "constant": true
    },
    {
      "inputs": [
        {
          "internalType": "address",
          "name": "",
          "type": "address"
        }
      ],
      "name": "adminUsernames",
      "outputs": [
        {
          "internalType": "string",
          "name": "",
          "type": "string"
        }
      ],
      "stateMutability": "view",
      "type": "function",
      "constant": true
    },
    {
      "inputs": [],
      "name": "approvedBankCount",
      "outputs": [
        {
          "internalType": "uint256",
          "name": "",
          "type": "uint256"
        }
      ],
      "stateMutability": "view",
      "type": "function",
      "constant": true
    },
    {
      "inputs": [
        {
          "internalType": "uint256",
          "name": "",
          "type": "uint256"
        },
        {
          "internalType": "uint256",
          "name": "",
          "type": "uint256"
        }
      ],
      "name": "bankApprovedCustomers",
      "outputs": [
        {
          "internalType": "uint256",
          "name": "",
          "type": "uint256"
        }
      ],
      "stateMutability": "view",
      "type": "function",
      "constant": true
    },
    {
      "inputs": [],
      "name": "bankCount",
      "outputs": [
        {
          "internalType": "uint256",
          "name": "",
          "type": "uint256"
        }
      ],
      "stateMutability": "view",
      "type": "function",
      "constant": true
    },
    {
      "inputs": [
        {
          "internalType": "uint256",
          "name": "",
          "type": "uint256"
        },
        {
          "internalType": "uint256",
          "name": "",
          "type": "uint256"
        }
      ],
      "name": "bankCustomerAccess",
      "outputs": [
        {
          "internalType": "bool",
          "name": "",
          "type": "bool"
        }
      ],
      "stateMutability": "view",
      "type": "function",
      "constant": true
    },
    {
      "inputs": [
        {
          "internalType": "uint256",
          "name": "",
          "type": "uint256"
        },
        {
          "internalType": "uint256",
          "name": "",
          "type": "uint256"
        }
      ],
      "name": "bankCustomers",
      "outputs": [
        {
          "internalType": "uint256",
          "name": "",
          "type": "uint256"
        }
      ],
      "stateMutability": "view",
      "type": "function",
      "constant": true
    },
    {
      "inputs": [
        {
          "internalType": "address",
          "name": "",
          "type": "address"
        }
      ],
      "name": "bankIds",
      "outputs": [
        {
          "internalType": "uint256",
          "name": "",
          "type": "uint256"
        }
      ],
      "stateMutability": "view",
      "type": "function",
      "constant": true
    },
    {
      "inputs": [
        {
          "internalType": "uint256",
          "name": "",
          "type": "uint256"
        },
        {
          "internalType": "uint256",
          "name": "",
          "type": "uint256"
        }
      ],
      "name": "bankPendingRequests",
      "outputs": [
        {
          "internalType": "uint256",
          "name": "",
          "type": "uint256"
        }
      ],
      "stateMutability": "view",
      "type": "function",
      "constant": true
    },
    {
      "inputs": [
        {
          "internalType": "uint256",
          "name": "",
          "type": "uint256"
        }
      ],
      "name": "banks",
      "outputs": [
        {
          "internalType": "uint256",
          "name": "id",
          "type": "uint256"
        },
        {
          "internalType": "string",
          "name": "bankNumber",
          "type": "string"
        },
        {
          "internalType": "string",
          "name": "name",
          "type": "string"
        },
        {
          "internalType": "string",
          "name": "country",
          "type": "string"
        },
        {
          "internalType": "string",
          "name": "state",
          "type": "string"
        },
        {
          "internalType": "string",
          "name": "pincode",
          "type": "string"
        },
        {
          "internalType": "string",
          "name": "adminName",
          "type": "string"
        },
        {
          "internalType": "address",
          "name": "walletAddress",
          "type": "address"
        },
        {
          "internalType": "bool",
          "name": "isApproved",
          "type": "bool"
        },
        {
          "internalType": "string",
          "name": "passwordHash",
          "type": "string"
        }
      ],
      "stateMutability": "view",
      "type": "function",
      "constant": true
    },
    {
      "inputs": [
        {
          "internalType": "uint256",
          "name": "",
          "type": "uint256"
        },
        {
          "internalType": "uint256",
          "name": "",
          "type": "uint256"
        }
      ],
      "name": "customerBankRequests",
      "outputs": [
        {
          "internalType": "uint256",
          "name": "bankId",
          "type": "uint256"
        },
        {
          "internalType": "uint256",
          "name": "requestDate",
          "type": "uint256"
        },
        {
          "internalType": "bool",
          "name": "responded",
          "type": "bool"
        },
        {
          "internalType": "bool",
          "name": "accessGranted",
          "type": "bool"
        },
        {
          "internalType": "string",
          "name": "bankName",
          "type": "string"
        }
      ],
      "stateMutability": "view",
      "type": "function",
      "constant": true
    },
    {
      "inputs": [],
      "name": "customerCount",
      "outputs": [
        {
          "internalType": "uint256",
          "name": "",
          "type": "uint256"
        }
      ],
      "stateMutability": "view",
      "type": "function",
      "constant": true
    },
    {
      "inputs": [
        {
          "internalType": "uint256",
          "name": "",
          "type": "uint256"
        },
        {
          "internalType": "uint256",
          "name": "",
          "type": "uint256"
        }
      ],
      "name": "customerDocuments",
      "outputs": [
        {
          "internalType": "string",
          "name": "docType",
          "type": "string"
        },
        {
          "internalType": "string",
          "name": "docHash",
          "type": "string"
        }
      ],
      "stateMutability": "view",
      "type": "function",
      "constant": true
    },
    {
      "inputs": [
        {
          "internalType": "address",
          "name": "",
          "type": "address"
        },
        {
          "internalType": "uint256",
          "name": "",
          "type": "uint256"
        }
      ],
      "name": "customerWalletMapping",
      "outputs": [
        {
          "internalType": "uint256",
          "name": "",
          "type": "uint256"
        }
      ],
      "stateMutability": "view",
      "type": "function",
      "constant": true
    },
    {
      "inputs": [
        {
          "internalType": "uint256",
          "name": "",
          "type": "uint256"
        }
      ],
      "name": "customers",
      "outputs": [
        {
          "internalType": "uint256",
          "name": "id",
          "type": "uint256"
        },
        {
          "internalType": "string",
          "name": "documentName",
          "type": "string"
        },
        {
          "internalType": "string",
          "name": "username",
          "type": "string"
        },
        {
          "internalType": "string",
          "name": "passwordHash",
          "type": "string"
        },
        {
          "internalType": "address",
          "name": "walletAddress",
          "type": "address"
        },
        {
          "internalType": "enum KYCContract.CustomerStatus",
          "name": "status",
          "type": "uint8"
        },
        {
          "internalType": "uint256",
          "name": "bankId",
          "type": "uint256"
        },
        {
          "internalType": "uint256",
          "name": "approvalDate",
          "type": "uint256"
        },
        {
          "internalType": "string",
          "name": "remarks",
          "type": "string"
        },
        {
          "internalType": "string",
          "name": "verificationHash",
          "type": "string"
        }
      ],
      "stateMutability": "view",
      "type": "function",
      "constant": true
    },
    {
      "inputs": [
        {
          "internalType": "address",
          "name": "",
          "type": "address"
        }
      ],
      "name": "isAdmin",
      "outputs": [
        {
          "internalType": "bool",
          "name": "",
          "type": "bool"
        }
      ],
      "stateMutability": "view",
      "type": "function",
      "constant": true
    },
    {
      "inputs": [],
      "name": "pendingBankCount",
      "outputs": [
        {
          "internalType": "uint256",
          "name": "",
          "type": "uint256"
        }
      ],
      "stateMutability": "view",
      "type": "function",
      "constant": true
    },
    {
      "inputs": [
        {
          "internalType": "string",
          "name": "username",
          "type": "string"
        },
        {
          "internalType": "string",
          "name": "passwordHash",
          "type": "string"
        }
      ],
      "name": "adminLogin",
      "outputs": [
        {
          "internalType": "bool",
          "name": "",
          "type": "bool"
        }
      ],
      "stateMutability": "view",
      "type": "function",
      "constant": true
    },
    {
      "inputs": [
        {
          "internalType": "address",
          "name": "_admin",
          "type": "address"
        },
        {
          "internalType": "string",
          "name": "username",
          "type": "string"
        },
        {
          "internalType": "string",
          "name": "passwordHash",
          "type": "string"
        }
      ],
      "name": "addAdmin",
      "outputs": [],
      "stateMutability": "nonpayable",
      "type": "function"
    },
    {
      "inputs": [
        {
          "internalType": "uint256",
          "name": "_bankId",
          "type": "uint256"
        }
      ],
      "name": "approveBank",
      "outputs": [],
      "stateMutability": "nonpayable",
      "type": "function"
    },
    {
      "inputs": [
        {
          "internalType": "string",
          "name": "_bankNumber",
          "type": "string"
        },
        {
          "internalType": "string",
          "name": "_name",
          "type": "string"
        },
        {
          "internalType": "string",
          "name": "_country",
          "type": "string"
        },
        {
          "internalType": "string",
          "name": "_state",
          "type": "string"
        },
        {
          "internalType": "string",
          "name": "_pincode",
          "type": "string"
        },
        {
          "internalType": "string",
          "name": "_adminName",
          "type": "string"
        },
        {
          "internalType": "string",
          "name": "_passwordHash",
          "type": "string"
        }
      ],
      "name": "registerBank",
      "outputs": [],
      "stateMutability": "nonpayable",
      "type": "function"
    },
    {
      "inputs": [
        {
          "internalType": "string",
          "name": "_name",
          "type": "string"
        },
        {
          "internalType": "string",
          "name": "_passwordHash",
          "type": "string"
        }
      ],
      "name": "bankLogin",
      "outputs": [
        {
          "internalType": "bool",
          "name": "",
          "type": "bool"
        }
      ],
      "stateMutability": "view",
      "type": "function",
      "constant": true
    },
    {
      "inputs": [
        {
          "internalType": "uint256",
          "name": "customerId",
          "type": "uint256"
        },
        {
          "internalType": "string",
          "name": "remarks",
          "type": "string"
        }
      ],
      "name": "approveCustomer",
      "outputs": [],
      "stateMutability": "nonpayable",
      "type": "function"
    },
    {
      "inputs": [
        {
          "internalType": "uint256",
          "name": "customerId",
          "type": "uint256"
        },
        {
          "internalType": "string",
          "name": "remarks",
          "type": "string"
        }
      ],
      "name": "rejectCustomer",
      "outputs": [],
      "stateMutability": "nonpayable",
      "type": "function"
    },
    {
      "inputs": [
        {
          "internalType": "uint256",
          "name": "customerId",
          "type": "uint256"
        }
      ],
      "name": "requestCustomerAccess",
      "outputs": [],
      "stateMutability": "nonpayable",
      "type": "function"
    },
    {
      "inputs": [
        {
          "internalType": "uint256",
          "name": "customerId",
          "type": "uint256"
        }
      ],
      "name": "getCustomerDocumentsForBank",
      "outputs": [
        {
          "components": [
            {
              "internalType": "string",
              "name": "docType",
              "type": "string"
            },
            {
              "internalType": "string",
              "name": "docHash",
              "type": "string"
            }
          ],
          "internalType": "struct KYCContract.Document[]",
          "name": "",
          "type": "tuple[]"
        }
      ],
      "stateMutability": "view",
      "type": "function",
      "constant": true
    },
    {
      "inputs": [
        {
          "internalType": "string",
          "name": "_username",
          "type": "string"
        },
        {
          "internalType": "string",
          "name": "_documentName",
          "type": "string"
        },
        {
          "internalType": "string",
          "name": "_passwordHash",
          "type": "string"
        }
      ],
      "name": "registerCustomer",
      "outputs": [],
      "stateMutability": "nonpayable",
      "type": "function"
    },
    {
      "inputs": [
        {
          "internalType": "string",
          "name": "_username",
          "type": "string"
        },
        {
          "internalType": "string",
          "name": "_passwordHash",
          "type": "string"
        }
      ],
      "name": "customerLogin",
      "outputs": [
        {
          "internalType": "bool",
          "name": "",
          "type": "bool"
        }
      ],
      "stateMutability": "view",
      "type": "function",
      "constant": true
    },
    {
      "inputs": [
        {
          "internalType": "uint256",
          "name": "_bankId",
          "type": "uint256"
        },
        {
          "components": [
            {
              "internalType": "string",
              "name": "docType",
              "type": "string"
            },
            {
              "internalType": "string",
              "name": "docHash",
              "type": "string"
            }
          ],
          "internalType": "struct KYCContract.Document[]",
          "name": "_documents",
          "type": "tuple[]"
        }
      ],
      "name": "submitKYCRequest",
      "outputs": [],
      "stateMutability": "nonpayable",
      "type": "function"
    },
    {
      "inputs": [
        {
          "internalType": "uint256",
          "name": "customerId",
          "type": "uint256"
        },
        {
          "internalType": "uint256",
          "name": "bankId",
          "type": "uint256"
        },
        {
          "internalType": "bool",
          "name": "grantAccess",
          "type": "bool"
        }
      ],
      "name": "respondToBankRequest",
      "outputs": [],
      "stateMutability": "nonpayable",
      "type": "function"
    },
    {
      "inputs": [],
      "name": "getPendingBanks",
      "outputs": [
        {
          "components": [
            {
              "internalType": "uint256",
              "name": "id",
              "type": "uint256"
            },
            {
              "internalType": "string",
              "name": "bankNumber",
              "type": "string"
            },
            {
              "internalType": "string",
              "name": "name",
              "type": "string"
            },
            {
              "internalType": "string",
              "name": "country",
              "type": "string"
            },
            {
              "internalType": "string",
              "name": "state",
              "type": "string"
            },
            {
              "internalType": "string",
              "name": "pincode",
              "type": "string"
            },
            {
              "internalType": "string",
              "name": "adminName",
              "type": "string"
            },
            {
              "internalType": "address",
              "name": "walletAddress",
              "type": "address"
            },
            {
              "internalType": "bool",
              "name": "isApproved",
              "type": "bool"
            },
            {
              "internalType": "string",
              "name": "passwordHash",
              "type": "string"
            }
          ],
          "internalType": "struct KYCContract.Bank[]",
          "name": "",
          "type": "tuple[]"
        }
      ],
      "stateMutability": "view",
      "type": "function",
      "constant": true
    },
    {
      "inputs": [],
      "name": "getApprovedBanks",
      "outputs": [
        {
          "components": [
            {
              "internalType": "uint256",
              "name": "id",
              "type": "uint256"
            },
            {
              "internalType": "string",
              "name": "bankNumber",
              "type": "string"
            },
            {
              "internalType": "string",
              "name": "name",
              "type": "string"
            },
            {
              "internalType": "string",
              "name": "country",
              "type": "string"
            },
            {
              "internalType": "string",
              "name": "state",
              "type": "string"
            },
            {
              "internalType": "string",
              "name": "pincode",
              "type": "string"
            },
            {
              "internalType": "string",
              "name": "adminName",
              "type": "string"
            },
            {
              "internalType": "address",
              "name": "walletAddress",
              "type": "address"
            },
            {
              "internalType": "bool",
              "name": "isApproved",
              "type": "bool"
            },
            {
              "internalType": "string",
              "name": "passwordHash",
              "type": "string"
            }
          ],
          "internalType": "struct KYCContract.Bank[]",
          "name": "",
          "type": "tuple[]"
        }
      ],
      "stateMutability": "view",
      "type": "function",
      "constant": true
    },
    {
      "inputs": [
        {
          "internalType": "address",
          "name": "_bankAddress",
          "type": "address"
        }
      ],
      "name": "getBankStatus",
      "outputs": [
        {
          "internalType": "bool",
          "name": "isRegistered",
          "type": "bool"
        },
        {
          "internalType": "bool",
          "name": "isApproved",
          "type": "bool"
        },
        {
          "internalType": "string",
          "name": "name",
          "type": "string"
        },
        {
          "internalType": "string",
          "name": "email",
          "type": "string"
        }
      ],
      "stateMutability": "view",
      "type": "function",
      "constant": true
    },
    {
      "inputs": [
        {
          "internalType": "address",
          "name": "_bankAddress",
          "type": "address"
        }
      ],
      "name": "isBankApproved",
      "outputs": [
        {
          "internalType": "bool",
          "name": "",
          "type": "bool"
        }
      ],
      "stateMutability": "view",
      "type": "function",
      "constant": true
    },
    {
      "inputs": [
        {
          "internalType": "address",
          "name": "_bankAddress",
          "type": "address"
        }
      ],
      "name": "checkBankRegistration",
      "outputs": [
        {
          "internalType": "bool",
          "name": "",
          "type": "bool"
        }
      ],
      "stateMutability": "view",
      "type": "function",
      "constant": true
    },
    {
      "inputs": [
        {
          "internalType": "address",
          "name": "_customerAddress",
          "type": "address"
        }
      ],
      "name": "getCustomerStatus",
      "outputs": [
        {
          "internalType": "enum KYCContract.CustomerStatus",
          "name": "",
          "type": "uint8"
        }
      ],
      "stateMutability": "view",
      "type": "function",
      "constant": true
    },
    {
      "inputs": [
        {
          "internalType": "uint256",
          "name": "customerId",
          "type": "uint256"
        }
      ],
      "name": "getCustomerDocuments",
      "outputs": [
        {
          "components": [
            {
              "internalType": "string",
              "name": "docType",
              "type": "string"
            },
            {
              "internalType": "string",
              "name": "docHash",
              "type": "string"
            }
          ],
          "internalType": "struct KYCContract.Document[]",
          "name": "",
          "type": "tuple[]"
        }
      ],
      "stateMutability": "view",
      "type": "function",
      "constant": true
    },
    {
      "inputs": [
        {
          "internalType": "uint256",
          "name": "customerId",
          "type": "uint256"
        }
      ],
      "name": "getCustomerBankRequests",
      "outputs": [
        {
          "components": [
            {
              "internalType": "uint256",
              "name": "bankId",
              "type": "uint256"
            },
            {
              "internalType": "uint256",
              "name": "requestDate",
              "type": "uint256"
            },
            {
              "internalType": "bool",
              "name": "responded",
              "type": "bool"
            },
            {
              "internalType": "bool",
              "name": "accessGranted",
              "type": "bool"
            },
            {
              "internalType": "string",
              "name": "bankName",
              "type": "string"
            }
          ],
          "internalType": "struct KYCContract.BankRequest[]",
          "name": "",
          "type": "tuple[]"
        }
      ],
      "stateMutability": "view",
      "type": "function",
      "constant": true
    },
    {
      "inputs": [
        {
          "internalType": "uint256",
          "name": "bankId",
          "type": "uint256"
        }
      ],
      "name": "getBankPendingRequests",
      "outputs": [
        {
          "internalType": "uint256[]",
          "name": "",
          "type": "uint256[]"
        }
      ],
      "stateMutability": "view",
      "type": "function",
      "constant": true
    },
    {
      "inputs": [
        {
          "internalType": "uint256",
          "name": "bankId",
          "type": "uint256"
        }
      ],
      "name": "getBankApprovedCustomers",
      "outputs": [
        {
          "internalType": "uint256[]",
          "name": "",
          "type": "uint256[]"
        }
      ],
      "stateMutability": "view",
      "type": "function",
      "constant": true
    },
    {
      "inputs": [
        {
          "internalType": "uint256",
          "name": "customerId",
          "type": "uint256"
        },
        {
          "internalType": "uint256",
          "name": "bankId",
          "type": "uint256"
        }
      ],
      "name": "hasPendingRequest",
      "outputs": [
        {
          "internalType": "bool",
          "name": "",
          "type": "bool"
        }
      ],
      "stateMutability": "view",
      "type": "function",
      "constant": true
    },
    {
      "inputs": [
        {
          "internalType": "address",
          "name": "wallet",
          "type": "address"
        }
      ],
      "name": "getCustomerId",
      "outputs": [
        {
          "internalType": "uint256",
          "name": "",
          "type": "uint256"
        }
      ],
      "stateMutability": "view",
      "type": "function",
      "constant": true
    },
    {
      "inputs": [
        {
          "internalType": "uint256",
          "name": "customerId",
          "type": "uint256"
        }
      ],
      "name": "getCustomerDetails",
      "outputs": [
        {
          "internalType": "string",
          "name": "username",
          "type": "string"
        },
        {
          "internalType": "string",
          "name": "documentName",
          "type": "string"
        },
        {
          "internalType": "address",
          "name": "walletAddress",
          "type": "address"
        },
        {
          "internalType": "enum KYCContract.CustomerStatus",
          "name": "status",
          "type": "uint8"
        },
        {
          "internalType": "uint256",
          "name": "bankId",
          "type": "uint256"
        },
        {
          "internalType": "uint256",
          "name": "approvalDate",
          "type": "uint256"
        },
        {
          "internalType": "string",
          "name": "remarks",
          "type": "string"
        },
        {
          "internalType": "string",
          "name": "verificationHash",
          "type": "string"
        }
      ],
      "stateMutability": "view",
      "type": "function",
      "constant": true
    },
    {
      "inputs": [
        {
          "internalType": "address",
          "name": "wallet",
          "type": "address"
        }
      ],
      "name": "getCustomerIdByAddress",
      "outputs": [
        {
          "internalType": "uint256",
          "name": "",
          "type": "uint256"
        }
      ],
      "stateMutability": "view",
      "type": "function",
      "constant": true
    },
    {
      "inputs": [
        {
          "internalType": "uint256",
          "name": "customerId",
          "type": "uint256"
        }
      ],
      "name": "getCustomerStatusById",
      "outputs": [
        {
          "internalType": "uint256",
          "name": "",
          "type": "uint256"
        }
      ],
      "stateMutability": "view",
      "type": "function",
      "constant": true
    }
  ],
  "bytecode": "0x6080604052600060045560006005556000600655600060075534801561002457600080fd5b50600080546001600160a01b0319163390811782558152600160208190526040909120805460ff1916909117905561574d80620000626000396000f3fe608060405234801561001057600080fd5b50600436106102885760003560e01c80636837751f1161015c578063b787d579116100ce578063dde303e111610087578063dde303e114610656578063e7a3424714610676578063e90ad8fb14610689578063f851a440146106ad578063f879eb57146106d8578063f8e66a4d146106e157600080fd5b8063b787d579146105cb578063bf3eb708146105de578063c0abda2a146105f1578063c71540801461061a578063cac513fd1461062d578063cd7603131461063557600080fd5b80639757e8a3116101205780639757e8a3146105615780639a6c76371461056a5780639d2c95831461057d5780639ff185bc14610592578063a429dd06146105a5578063a96de8b2146105b857600080fd5b80636837751f146104f557806372a7ad8c146105085780637ae4aa151461051b578063842f54191461053b5780638c22e4d51461054e57600080fd5b806335d71a261161020057806348cbb2b9116101b957806348cbb2b91461046b578063506a617a1461047e578063555545b4146104915780635babf5ef146104a45780635e2ef329146104b757806361e8391f146104e257600080fd5b806335d71a2614610409578063394fdc82146104125780633a521b871461032e5780633cb9e91a146104255780633e5294c014610438578063454f2be71461045857600080fd5b8063145e071511610252578063145e07151461032e578063196847241461034157806324d7806c146103615780632c4ae716146103945780632fe336c4146103bb5780633454bc34146103db57600080fd5b806285ae2b1461028d578062c3c3e8146102bf57806303249910146102d65780630539e09a146102f6578063110115f11461030b575b600080fd5b6102a061029b366004614854565b6106f4565b6040516102b69a999897969594939291906148b3565b60405180910390f35b6102c860055481565b6040519081526020016102b6565b6102e96102e4366004614854565b610b0b565b6040516102b6919061496f565b610309610304366004614854565b610d91565b005b61031e610319366004614a10565b610ec9565b6040516102b69493929190614a2b565b6102c861033c366004614a10565b611392565b61035461034f366004614854565b611429565b6040516102b69190614a6b565b61038461036f366004614a10565b60016020526000908152604090205460ff1681565b60405190151581526020016102b6565b6103a76103a2366004614854565b6114b9565b6040516102b6989796959493929190614ae7565b6102c86103c9366004614a10565b60096020526000908152604090205481565b6103846103e9366004614b6e565b600e60209081526000928352604080842090915290825290205460ff1681565b6102c860065481565b610384610420366004614c70565b61186f565b610309610433366004614cd4565b611a1f565b61044b610446366004614a10565b611cac565b6040516102b69190614def565b6102c8610466366004614b6e565b611d46565b6102c8610479366004614854565b611d77565b6102c861048c366004614b6e565b611da4565b61044b61049f366004614a10565b611dc0565b6103096104b2366004614e02565b611dd9565b6103846104c5366004614a10565b6001600160a01b0316600090815260096020526040902054151590565b6103096104f0366004614e76565b611e9c565b610384610503366004614b6e565b612060565b610354610516366004614854565b6120fe565b61052e610529366004614a10565b61218c565b6040516102b69190614eb3565b610309610549366004614ec1565b612291565b6102e961055c366004614854565b612581565b6102c860075481565b610384610578366004614c70565b61273e565b610585612bc9565b6040516102b69190614fea565b6102c86105a036600461511f565b6130e9565b6103846105b3366004614a10565b613105565b6103096105c6366004615149565b61314a565b6102c86105d9366004614b6e565b6133c8565b6103096105ec366004614854565b6133e4565b6106046105ff366004614854565b613662565b6040516102b69a99989796959493929190615187565b610384610628366004614c70565b6138e8565b610585613a43565b610648610643366004614b6e565b613f8a565b6040516102b692919061521b565b610669610664366004614854565b6140db565b6040516102b69190615249565b610309610684366004614e76565b614232565b61069c610697366004614b6e565b61440d565b6040516102b69594939291906152d4565b6000546106c0906001600160a01b031681565b6040516001600160a01b0390911681526020016102b6565b6102c860045481565b6103096106ef366004615303565b6144ee565b6008602052600090815260409020805460018201805491929161071690615352565b80601f016020809104026020016040519081016040528092919081815260200182805461074290615352565b801561078f5780601f106107645761010080835404028352916020019161078f565b820191906000526020600020905b81548152906001019060200180831161077257829003601f168201915b5050505050908060020180546107a490615352565b80601f01602080910402602001604051908101604052809291908181526020018280546107d090615352565b801561081d5780601f106107f25761010080835404028352916020019161081d565b820191906000526020600020905b81548152906001019060200180831161080057829003601f168201915b50505050509080600301805461083290615352565b80601f016020809104026020016040519081016040528092919081815260200182805461085e90615352565b80156108ab5780601f10610880576101008083540402835291602001916108ab565b820191906000526020600020905b81548152906001019060200180831161088e57829003601f168201915b5050505050908060040180546108c090615352565b80601f01602080910402602001604051908101604052809291908181526020018280546108ec90615352565b80156109395780601f1061090e57610100808354040283529160200191610939565b820191906000526020600020905b81548152906001019060200180831161091c57829003601f168201915b50505050509080600501805461094e90615352565b80601f016020809104026020016040519081016040528092919081815260200182805461097a90615352565b80156109c75780601f1061099c576101008083540402835291602001916109c7565b820191906000526020600020905b8154815290600101906020018083116109aa57829003601f168201915b5050505050908060060180546109dc90615352565b80601f0160208091040260200160405190810160405280929190818152602001828054610a0890615352565b8015610a555780601f10610a2a57610100808354040283529160200191610a55565b820191906000526020600020905b815481529060010190602001808311610a3857829003601f168201915b50505050600783015460088401805493946001600160a01b03831694600160a01b90930460ff16935091610a8890615352565b80601f0160208091040260200160405190810160405280929190818152602001828054610ab490615352565b8015610b015780601f10610ad657610100808354040283529160200191610b01565b820191906000526020600020905b815481529060010190602001808311610ae457829003601f168201915b505050505090508a565b336000908152600960205260409020546060908015801590610b455750600081815260086020526040902060070154600160a01b900460ff165b610b6a5760405162461bcd60e51b8152600401610b6190615386565b60405180910390fd5b82600081118015610b7d57506007548111155b610b995760405162461bcd60e51b8152600401610b61906153b3565b33600090815260096020908152604080832054808452600e83528184208885529092529091205460ff16610c045760405162461bcd60e51b81526020600482015260126024820152711058d8d95cdcc81b9bdd0819dc985b9d195960721b6044820152606401610b61565b6000858152600b6020908152604080832080548251818502810185019093528083529193909284015b82821015610d835783829060005260206000209060020201604051806040016040529081600082018054610c6090615352565b80601f0160208091040260200160405190810160405280929190818152602001828054610c8c90615352565b8015610cd95780601f10610cae57610100808354040283529160200191610cd9565b820191906000526020600020905b815481529060010190602001808311610cbc57829003601f168201915b50505050508152602001600182018054610cf290615352565b80601f0160208091040260200160405190810160405280929190818152602001828054610d1e90615352565b8015610d6b5780601f10610d4057610100808354040283529160200191610d6b565b820191906000526020600020905b815481529060010190602001808311610d4e57829003601f168201915b50505050508152505081526020019060010190610c2d565b505050509350505050919050565b3360009081526001602052604090205460ff16610dc05760405162461bcd60e51b8152600401610b61906153e0565b600081118015610dd257506004548111155b610dee5760405162461bcd60e51b8152600401610b6190615417565b600081815260086020526040902060070154600160a01b900460ff1615610e4f5760405162461bcd60e51b815260206004820152601560248201527410985b9ac8185b1c9958591e48185c1c1c9bdd9959605a1b6044820152606401610b61565b6000818152600860205260408120600701805460ff60a01b1916600160a01b1790556006805491610e7f83615456565b909155505060058054906000610e948361546f565b9091555050604051339082907fc8d8c44fe504407291f94af237b5cd49584a2e445e5241458e13ce7ee34f74cb90600090a350565b6001600160a01b03811660009081526009602052604081205481906060908190808403610f1a575050604080516020808201835260008083528351918201909352828152919450849350915061138b565b6000600860008381526020019081526020016000206040518061014001604052908160008201548152602001600182018054610f5590615352565b80601f0160208091040260200160405190810160405280929190818152602001828054610f8190615352565b8015610fce5780601f10610fa357610100808354040283529160200191610fce565b820191906000526020600020905b815481529060010190602001808311610fb157829003601f168201915b50505050508152602001600282018054610fe790615352565b80601f016020809104026020016040519081016040528092919081815260200182805461101390615352565b80156110605780601f1061103557610100808354040283529160200191611060565b820191906000526020600020905b81548152906001019060200180831161104357829003601f168201915b5050505050815260200160038201805461107990615352565b80601f01602080910402602001604051908101604052809291908181526020018280546110a590615352565b80156110f25780601f106110c7576101008083540402835291602001916110f2565b820191906000526020600020905b8154815290600101906020018083116110d557829003601f168201915b5050505050815260200160048201805461110b90615352565b80601f016020809104026020016040519081016040528092919081815260200182805461113790615352565b80156111845780601f1061115957610100808354040283529160200191611184565b820191906000526020600020905b81548152906001019060200180831161116757829003601f168201915b5050505050815260200160058201805461119d90615352565b80601f01602080910402602001604051908101604052809291908181526020018280546111c990615352565b80156112165780601f106111eb57610100808354040283529160200191611216565b820191906000526020600020905b8154815290600101906020018083116111f957829003601f168201915b5050505050815260200160068201805461122f90615352565b80601f016020809104026020016040519081016040528092919081815260200182805461125b90615352565b80156112a85780601f1061127d576101008083540402835291602001916112a8565b820191906000526020600020905b81548152906001019060200180831161128b57829003601f168201915b505050918352505060078201546001600160a01b0381166020830152600160a01b900460ff16151560408201526008820180546060909201916112ea90615352565b80601f016020809104026020016040519081016040528092919081815260200182805461131690615352565b80156113635780601f1061133857610100808354040283529160200191611363565b820191906000526020600020905b81548152906001019060200180831161134657829003601f168201915b5050505050815250509050600181610100015182604001518360c00151955095509550955050505b9193509193565b6001600160a01b0381166000908152600f60209081526040808320805482518185028101850190935280835284938301828280156113ef57602002820191906000526020600020905b8154815260200190600101908083116113db575b505050505090506000815111611406576000611422565b8060008151811061141957611419615486565b60200260200101515b9392505050565b606060008211801561143d57506004548211155b6114595760405162461bcd60e51b8152600401610b6190615417565b600082815260116020908152604091829020805483518184028101840190945280845290918301828280156114ad57602002820191906000526020600020905b815481526020019060010190808311611499575b50505050509050919050565b6060806000806000806060806000600a60008b8152602001908152602001600020604051806101400160405290816000820154815260200160018201805461150090615352565b80601f016020809104026020016040519081016040528092919081815260200182805461152c90615352565b80156115795780601f1061154e57610100808354040283529160200191611579565b820191906000526020600020905b81548152906001019060200180831161155c57829003601f168201915b5050505050815260200160028201805461159290615352565b80601f01602080910402602001604051908101604052809291908181526020018280546115be90615352565b801561160b5780601f106115e05761010080835404028352916020019161160b565b820191906000526020600020905b8154815290600101906020018083116115ee57829003601f168201915b5050505050815260200160038201805461162490615352565b80601f016020809104026020016040519081016040528092919081815260200182805461165090615352565b801561169d5780601f106116725761010080835404028352916020019161169d565b820191906000526020600020905b81548152906001019060200180831161168057829003601f168201915b505050918352505060048201546001600160a01b0381166020830152604090910190600160a01b900460ff1660038111156116da576116da614aaf565b60038111156116eb576116eb614aaf565b8152602001600582015481526020016006820154815260200160078201805461171390615352565b80601f016020809104026020016040519081016040528092919081815260200182805461173f90615352565b801561178c5780601f106117615761010080835404028352916020019161178c565b820191906000526020600020905b81548152906001019060200180831161176f57829003601f168201915b505050505081526020016008820180546117a590615352565b80601f01602080910402602001604051908101604052809291908181526020018280546117d190615352565b801561181e5780601f106117f35761010080835404028352916020019161181e565b820191906000526020600020905b81548152906001019060200180831161180157829003601f168201915b50505050508152505090508060400151816020015182608001518360a001518460c001518560e001518661010001518761012001519850985098509850985098509850985050919395975091939597565b336000908152600960205260408120548082036118c45760405162461bcd60e51b815260206004820152601360248201527210985b9ac81b9bdd081c9959da5cdd195c9959606a1b6044820152606401610b61565b8380519060200120600860008381526020019081526020016000206002016040516118ef919061549c565b6040518091039020146119385760405162461bcd60e51b8152602060048201526011602482015270496e76616c69642062616e6b206e616d6560781b6044820152606401610b61565b828051906020012060086000838152602001908152602001600020600801604051611963919061549c565b6040518091039020146119ab5760405162461bcd60e51b815260206004820152601060248201526f125b9d985b1a59081c185cdcdddbdc9960821b6044820152606401610b61565b600081815260086020526040902060070154600160a01b900460ff16611a135760405162461bcd60e51b815260206004820152601a60248201527f42616e6b206e6f7420617070726f7665642062792061646d696e0000000000006044820152606401610b61565b60019150505b92915050565b3360009081526009602052604090205415611a7c5760405162461bcd60e51b815260206004820152601760248201527f42616e6b20616c726561647920726567697374657265640000000000000000006044820152606401610b61565b6000875111611ac45760405162461bcd60e51b815260206004820152601460248201527310985b9ac81b9d5b58995c881c995c5d5a5c995960621b6044820152606401610b61565b6000865111611b0a5760405162461bcd60e51b815260206004820152601260248201527110985b9ac81b985b59481c995c5d5a5c995960721b6044820152606401610b61565b60048054906000611b1a83615456565b909155505060058054906000611b2f83615456565b9091555050600454604080516101408101825282815260208082018b81528284018b9052606083018a90526080830189905260a0830188905260c083018790523360e084015260006101008401819052610120840187905285815260089092529290208151815591519091906001820190611baa9082615561565b5060408201516002820190611bbf9082615561565b5060608201516003820190611bd49082615561565b5060808201516004820190611be99082615561565b5060a08201516005820190611bfe9082615561565b5060c08201516006820190611c139082615561565b5060e08201516007820180546101008501511515600160a01b026001600160a81b03199091166001600160a01b03909316929092179190911790556101208201516008820190611c639082615561565b5050336000818152600960205260408082208590555191925083917fe3205d103dee1c98bb3392fb074db9daed34dc032543a4e0713311cd343c16be9190a35050505050505050565b60036020526000908152604090208054611cc590615352565b80601f0160208091040260200160405190810160405280929190818152602001828054611cf190615352565b8015611d3e5780601f10611d1357610100808354040283529160200191611d3e565b820191906000526020600020905b815481529060010190602001808311611d2157829003601f168201915b505050505081565b60106020528160005260406000208181548110611d6257600080fd5b90600052602060002001600091509150505481565b6000818152600a6020526040812060040154600160a01b900460ff166003811115611a1957611a19614aaf565b60116020528160005260406000208181548110611d6257600080fd5b60026020526000908152604090208054611cc590615352565b3360009081526001602052604090205460ff16611e085760405162461bcd60e51b8152600401610b61906153e0565b6001600160a01b0383166000908152600160208181526040808420805460ff1916909317909255600290529020611e3f8382615561565b506001600160a01b0383166000908152600360205260409020611e628282615561565b506040516001600160a01b038416907f44d6d25963f097ad14f29f06854a01f575648a1ef82f30e562ccd3889717e33990600090a2505050565b336000908152600960205260409020548015801590611ed35750600081815260086020526040902060070154600160a01b900460ff165b611eef5760405162461bcd60e51b8152600401610b6190615386565b82600081118015611f0257506007548111155b611f1e5760405162461bcd60e51b8152600401610b61906153b3565b6000848152600a6020908152604080832033845260099092529091205460058201548114611f5e5760405162461bcd60e51b8152600401610b6190615621565b60006004830154600160a01b900460ff166003811115611f8057611f80614aaf565b14611fc45760405162461bcd60e51b8152602060048201526014602482015273437573746f6d6572206e6f742070656e64696e6760601b6044820152606401610b61565b60048201805460ff60a01b1916600160a11b17905560078201611fe78682615561565b50611ff2818761472c565b604051819087907fbf97ec5290e8af0cdff4c1d0f1a11521f8415c98bee15e1c36bbc565612e327290600090a3857f365a3d0a71be5f440c8224437355d5bd81a703759bf906e441902272bfbafcb360026040516120509190614eb3565b60405180910390a2505050505050565b6000828152600d60205260408120815b81548110156120f3578382828154811061208c5761208c615486565b9060005260206000209060040201600001541480156120d157508181815481106120b8576120b8615486565b600091825260209091206002600490920201015460ff16155b156120e157600192505050611a19565b806120eb81615456565b915050612070565b506000949350505050565b606060008211801561211257506004548211155b61212e5760405162461bcd60e51b8152600401610b6190615417565b600082815260106020908152604091829020805483518184028101840190945280845290918301828280156114ad57602002820191906000526020600020908154815260200190600101908083116114995750505050509050919050565b6001600160a01b0381166000908152600f60209081526040808320805482518185028101850190935280835284938301828280156121e957602002820191906000526020600020905b8154815260200190600101908083116121d5575b50505050509050600081511161224b5760405162461bcd60e51b815260206004820152602160248201527f4e6f20637573746f6d6572206c696e6b656420746f20746869732077616c6c656044820152601d60fa1b6064820152608401610b61565b600a60008260008151811061226257612262615486565b6020026020010151815260200190815260200160002060040160149054906101000a900460ff16915050919050565b6000821180156122a357506004548211155b6122bf5760405162461bcd60e51b8152600401610b6190615417565b600082815260086020526040902060070154600160a01b900460ff1661231b5760405162461bcd60e51b815260206004820152601160248201527010985b9ac81b9bdd08185c1c1c9bdd9959607a1b6044820152606401610b61565b336000908152600f602090815260408083208054825181850281018501909352808352919290919083018282801561237257602002820191906000526020600020905b81548152602001906001019080831161235e575b5050505050905060008151116123c05760405162461bcd60e51b81526020600482015260136024820152724e6f20637573746f6d65722070726f66696c6560681b6044820152606401610b61565b6000816000815181106123d5576123d5615486565b602002602001015190506000600a6000838152602001908152602001600020905060005b8451811015612481576000838152600b60205260409020855186908390811061242457612424615486565b602090810291909101810151825460018101845560009384529190922082516002909202019081906124569082615561565b506020820151600182019061246b9082615561565b505050808061247990615456565b9150506123f9565b506005810185905560048101805460ff60a01b1916905560008581526010602090815260408083208054600181018255908452828420018590558783526008909152908190209051869184917f06e1e24f41d46b9b70fa402cb29df673b8e459eaad7ce659b91278d7fe071ff5916124fe91600290910190615663565b60405180910390a3817f3be1c22e46067dd9745579b6c0d709597891745c830e4f0a5c33b547f0382954855160405161253991815260200190565b60405180910390a2817f365a3d0a71be5f440c8224437355d5bd81a703759bf906e441902272bfbafcb360006040516125729190614eb3565b60405180910390a25050505050565b60608160008111801561259657506007548111155b6125b25760405162461bcd60e51b8152600401610b61906153b3565b6000838152600b6020908152604080832080548251818502810185019093528083529193909284015b82821015612731578382906000526020600020906002020160405180604001604052908160008201805461260e90615352565b80601f016020809104026020016040519081016040528092919081815260200182805461263a90615352565b80156126875780601f1061265c57610100808354040283529160200191612687565b820191906000526020600020905b81548152906001019060200180831161266a57829003601f168201915b505050505081526020016001820180546126a090615352565b80601f01602080910402602001604051908101604052809291908181526020018280546126cc90615352565b80156127195780601f106126ee57610100808354040283529160200191612719565b820191906000526020600020905b8154815290600101906020018083116126fc57829003601f168201915b505050505081525050815260200190600101906125db565b5050505091505b50919050565b336000908152600f602090815260408083208054825181850281018501909352808352849383018282801561279257602002820191906000526020600020905b81548152602001906001019080831161277e575b5050505050905060008151116127ea5760405162461bcd60e51b815260206004820152601c60248201527f4e6f20637573746f6d65727320666f7220746869732077616c6c6574000000006044820152606401610b61565b60005b81518110156120f3576000600a600084848151811061280e5761280e615486565b60200260200101518152602001908152602001600020604051806101400160405290816000820154815260200160018201805461284a90615352565b80601f016020809104026020016040519081016040528092919081815260200182805461287690615352565b80156128c35780601f10612898576101008083540402835291602001916128c3565b820191906000526020600020905b8154815290600101906020018083116128a657829003601f168201915b505050505081526020016002820180546128dc90615352565b80601f016020809104026020016040519081016040528092919081815260200182805461290890615352565b80156129555780601f1061292a57610100808354040283529160200191612955565b820191906000526020600020905b81548152906001019060200180831161293857829003601f168201915b5050505050815260200160038201805461296e90615352565b80601f016020809104026020016040519081016040528092919081815260200182805461299a90615352565b80156129e75780601f106129bc576101008083540402835291602001916129e7565b820191906000526020600020905b8154815290600101906020018083116129ca57829003601f168201915b505050918352505060048201546001600160a01b0381166020830152604090910190600160a01b900460ff166003811115612a2457612a24614aaf565b6003811115612a3557612a35614aaf565b81526020016005820154815260200160068201548152602001600782018054612a5d90615352565b80601f0160208091040260200160405190810160405280929190818152602001828054612a8990615352565b8015612ad65780601f10612aab57610100808354040283529160200191612ad6565b820191906000526020600020905b815481529060010190602001808311612ab957829003601f168201915b50505050508152602001600882018054612aef90615352565b80601f0160208091040260200160405190810160405280929190818152602001828054612b1b90615352565b8015612b685780601f10612b3d57610100808354040283529160200191612b68565b820191906000526020600020905b815481529060010190602001808311612b4b57829003601f168201915b50505050508152505090508580519060200120816040015180519060200120148015612ba557508480519060200120816060015180519060200120145b15612bb65760019350505050611a19565b5080612bc181615456565b9150506127ed565b6060600060065467ffffffffffffffff811115612be857612be8614b90565b604051908082528060200260200182016040528015612c2157816020015b612c0e6147f6565b815260200190600190039081612c065790505b509050600060015b60045481116130e157600081815260086020526040902060070154600160a01b900460ff16156130cf57600860008281526020019081526020016000206040518061014001604052908160008201548152602001600182018054612c8c90615352565b80601f0160208091040260200160405190810160405280929190818152602001828054612cb890615352565b8015612d055780601f10612cda57610100808354040283529160200191612d05565b820191906000526020600020905b815481529060010190602001808311612ce857829003601f168201915b50505050508152602001600282018054612d1e90615352565b80601f0160208091040260200160405190810160405280929190818152602001828054612d4a90615352565b8015612d975780601f10612d6c57610100808354040283529160200191612d97565b820191906000526020600020905b815481529060010190602001808311612d7a57829003601f168201915b50505050508152602001600382018054612db090615352565b80601f0160208091040260200160405190810160405280929190818152602001828054612ddc90615352565b8015612e295780601f10612dfe57610100808354040283529160200191612e29565b820191906000526020600020905b815481529060010190602001808311612e0c57829003601f168201915b50505050508152602001600482018054612e4290615352565b80601f0160208091040260200160405190810160405280929190818152602001828054612e6e90615352565b8015612ebb5780601f10612e9057610100808354040283529160200191612ebb565b820191906000526020600020905b815481529060010190602001808311612e9e57829003601f168201915b50505050508152602001600582018054612ed490615352565b80601f0160208091040260200160405190810160405280929190818152602001828054612f0090615352565b8015612f4d5780601f10612f2257610100808354040283529160200191612f4d565b820191906000526020600020905b815481529060010190602001808311612f3057829003601f168201915b50505050508152602001600682018054612f6690615352565b80601f0160208091040260200160405190810160405280929190818152602001828054612f9290615352565b8015612fdf5780601f10612fb457610100808354040283529160200191612fdf565b820191906000526020600020905b815481529060010190602001808311612fc257829003601f168201915b505050918352505060078201546001600160a01b0381166020830152600160a01b900460ff161515604082015260088201805460609092019161302190615352565b80601f016020809104026020016040519081016040528092919081815260200182805461304d90615352565b801561309a5780601f1061306f5761010080835404028352916020019161309a565b820191906000526020600020905b81548152906001019060200180831161307d57829003601f168201915b5050505050815250508383815181106130b5576130b5615486565b602002602001018190525081806130cb90615456565b9250505b806130d981615456565b915050612c29565b509092915050565b600f6020528160005260406000208181548110611d6257600080fd5b6001600160a01b03811660009081526009602052604081205480158015906114225750600090815260086020526040902060070154600160a01b900460ff1692915050565b336000908152600f60205260408120815b81548110156131a2578582828154811061317757613177615486565b90600052602060002001540361319057600192506131a2565b8061319a81615456565b91505061315b565b50816131f05760405162461bcd60e51b815260206004820152601960248201527f4e6f7420796f757220637573746f6d65722070726f66696c65000000000000006044820152606401610b61565b6000858152600d60205260408120905b815481101561337f578582828154811061321c5761321c615486565b906000526020600020906004020160000154148015613261575081818154811061324857613248615486565b600091825260209091206002600490920201015460ff16155b1561336d57600182828154811061327a5761327a615486565b906000526020600020906004020160020160006101000a81548160ff021916908315150217905550848282815481106132b5576132b5615486565b906000526020600020906004020160020160016101000a81548160ff0219169083151502179055508415613336576000868152600e602090815260408083208a8452909152808220805460ff1916600117905551879189917fcda288b5aabaeea851f95cf6f97c45ab02b5098dc55dcae077ede78b510fb48f9190a3613364565b604051869088907f60148fdee3e68ac0de0d4e16dee802d3629b6d768f2accffee7b5ce7b1c96a9390600090a35b50505050505050565b8061337781615456565b915050613200565b5060405162461bcd60e51b815260206004820152601860248201527f4e6f2070656e64696e67207265717565737420666f756e6400000000000000006044820152606401610b61565b600c6020528160005260406000208181548110611d6257600080fd5b33600090815260096020526040902054801580159061341b5750600081815260086020526040902060070154600160a01b900460ff165b6134375760405162461bcd60e51b8152600401610b6190615386565b8160008111801561344a57506007548111155b6134665760405162461bcd60e51b8152600401610b61906153b3565b336000908152600960205260409020546134808482612060565b156134cd5760405162461bcd60e51b815260206004820152601760248201527f5265717565737420616c72656164792070656e64696e670000000000000000006044820152606401610b61565b6000848152600d60209081526040808320815160a08101835285815242818501528083018590526060810185905285855260089093529220600201805460808301919061351990615352565b80601f016020809104026020016040519081016040528092919081815260200182805461354590615352565b80156135925780601f1061356757610100808354040283529160200191613592565b820191906000526020600020905b81548152906001019060200180831161357557829003601f168201915b5050509190925250508154600181810184556000938452602093849020835160049093020191825592820151928101929092556040810151600283018054606084015115156101000261ff00199315159390931661ffff19909116179190911790556080810151909190600382019061360b9082615561565b50505080847f06e1e24f41d46b9b70fa402cb29df673b8e459eaad7ce659b91278d7fe071ff5600860008581526020019081526020016000206002016040516136549190615663565b60405180910390a350505050565b600a602052600090815260409020805460018201805491929161368490615352565b80601f01602080910402602001604051908101604052809291908181526020018280546136b090615352565b80156136fd5780601f106136d2576101008083540402835291602001916136fd565b820191906000526020600020905b8154815290600101906020018083116136e057829003601f168201915b50505050509080600201805461371290615352565b80601f016020809104026020016040519081016040528092919081815260200182805461373e90615352565b801561378b5780601f106137605761010080835404028352916020019161378b565b820191906000526020600020905b81548152906001019060200180831161376e57829003601f168201915b5050505050908060030180546137a090615352565b80601f01602080910402602001604051908101604052809291908181526020018280546137cc90615352565b80156138195780601f106137ee57610100808354040283529160200191613819565b820191906000526020600020905b8154815290600101906020018083116137fc57829003601f168201915b5050505060048301546005840154600685015460078601805495966001600160a01b03851696600160a01b90950460ff169550929391929161385a90615352565b80601f016020809104026020016040519081016040528092919081815260200182805461388690615352565b80156138d35780601f106138a8576101008083540402835291602001916138d3565b820191906000526020600020905b8154815290600101906020018083116138b657829003601f168201915b505050505090806008018054610a8890615352565b3360009081526001602052604081205460ff166139365760405162461bcd60e51b815260206004820152600c60248201526b2737ba1030b71030b236b4b760a11b6044820152606401610b61565b828051906020012060026000336001600160a01b03166001600160a01b03168152602001908152602001600020604051613970919061549c565b6040518091039020146139b85760405162461bcd60e51b815260206004820152601060248201526f496e76616c696420757365726e616d6560801b6044820152606401610b61565b818051906020012060036000336001600160a01b03166001600160a01b031681526020019081526020016000206040516139f2919061549c565b604051809103902014613a3a5760405162461bcd60e51b815260206004820152601060248201526f125b9d985b1a59081c185cdcdddbdc9960821b6044820152606401610b61565b50600192915050565b3360009081526001602052604090205460609060ff16613a755760405162461bcd60e51b8152600401610b61906153e0565b600060055467ffffffffffffffff811115613a9257613a92614b90565b604051908082528060200260200182016040528015613acb57816020015b613ab86147f6565b815260200190600190039081613ab05790505b509050600060015b60045481116130e157600081815260086020526040902060070154600160a01b900460ff16613f7857600860008281526020019081526020016000206040518061014001604052908160008201548152602001600182018054613b3590615352565b80601f0160208091040260200160405190810160405280929190818152602001828054613b6190615352565b8015613bae5780601f10613b8357610100808354040283529160200191613bae565b820191906000526020600020905b815481529060010190602001808311613b9157829003601f168201915b50505050508152602001600282018054613bc790615352565b80601f0160208091040260200160405190810160405280929190818152602001828054613bf390615352565b8015613c405780601f10613c1557610100808354040283529160200191613c40565b820191906000526020600020905b815481529060010190602001808311613c2357829003601f168201915b50505050508152602001600382018054613c5990615352565b80601f0160208091040260200160405190810160405280929190818152602001828054613c8590615352565b8015613cd25780601f10613ca757610100808354040283529160200191613cd2565b820191906000526020600020905b815481529060010190602001808311613cb557829003601f168201915b50505050508152602001600482018054613ceb90615352565b80601f0160208091040260200160405190810160405280929190818152602001828054613d1790615352565b8015613d645780601f10613d3957610100808354040283529160200191613d64565b820191906000526020600020905b815481529060010190602001808311613d4757829003601f168201915b50505050508152602001600582018054613d7d90615352565b80601f0160208091040260200160405190810160405280929190818152602001828054613da990615352565b8015613df65780601f10613dcb57610100808354040283529160200191613df6565b820191906000526020600020905b815481529060010190602001808311613dd957829003601f168201915b50505050508152602001600682018054613e0f90615352565b80601f0160208091040260200160405190810160405280929190818152602001828054613e3b90615352565b8015613e885780601f10613e5d57610100808354040283529160200191613e88565b820191906000526020600020905b815481529060010190602001808311613e6b57829003601f168201915b505050918352505060078201546001600160a01b0381166020830152600160a01b900460ff1615156040820152600882018054606090920191613eca90615352565b80601f0160208091040260200160405190810160405280929190818152602001828054613ef690615352565b8015613f435780601f10613f1857610100808354040283529160200191613f43565b820191906000526020600020905b815481529060010190602001808311613f2657829003601f168201915b505050505081525050838381518110613f5e57613f5e615486565b60200260200101819052508180613f7490615456565b9250505b80613f8281615456565b915050613ad3565b600b6020528160005260406000208181548110613fa657600080fd5b906000526020600020906002020160009150915050806000018054613fca90615352565b80601f0160208091040260200160405190810160405280929190818152602001828054613ff690615352565b80156140435780601f1061401857610100808354040283529160200191614043565b820191906000526020600020905b81548152906001019060200180831161402657829003601f168201915b50505050509080600101805461405890615352565b80601f016020809104026020016040519081016040528092919081815260200182805461408490615352565b80156140d15780601f106140a6576101008083540402835291602001916140d1565b820191906000526020600020905b8154815290600101906020018083116140b457829003601f168201915b5050505050905082565b6060816000811180156140f057506007548111155b61410c5760405162461bcd60e51b8152600401610b61906153b3565b6000838152600d6020908152604080832080548251818502810185019093528083529193909284015b828210156127315760008481526020908190206040805160a0810182526004860290920180548352600181015493830193909352600283015460ff808216151592840192909252610100900416151560608201526003820180549192916080840191906141a190615352565b80601f01602080910402602001604051908101604052809291908181526020018280546141cd90615352565b801561421a5780601f106141ef5761010080835404028352916020019161421a565b820191906000526020600020905b8154815290600101906020018083116141fd57829003601f168201915b50505050508152505081526020019060010190614135565b3360009081526009602052604090205480158015906142695750600081815260086020526040902060070154600160a01b900460ff165b6142855760405162461bcd60e51b8152600401610b6190615386565b8260008111801561429857506007548111155b6142b45760405162461bcd60e51b8152600401610b61906153b3565b6000848152600a60209081526040808320338452600990925290912054600582015481146142f45760405162461bcd60e51b8152600401610b6190615621565b60006004830154600160a01b900460ff16600381111561431657614316614aaf565b1461435a5760405162461bcd60e51b8152602060048201526014602482015273437573746f6d6572206e6f742070656e64696e6760601b6044820152606401610b61565b60048201805460ff60a01b1916600160a01b179055426006830155600782016143838682615561565b5061438e818761472c565b6000818152601160209081526040808320805460018101825590845291832090910188905551829188917fdf3c6faea4e01d9578b8fac8dd06725d3dd33e40a58b47b1634fdfb369d366159190a3857f365a3d0a71be5f440c8224437355d5bd81a703759bf906e441902272bfbafcb360016040516120509190614eb3565b600d602052816000526040600020818154811061442957600080fd5b6000918252602090912060049091020180546001820154600283015460038401805493965091945060ff80821694610100909204169290919061446b90615352565b80601f016020809104026020016040519081016040528092919081815260200182805461449790615352565b80156144e45780601f106144b9576101008083540402835291602001916144e4565b820191906000526020600020905b8154815290600101906020018083116144c757829003601f168201915b5050505050905085565b60008351116145335760405162461bcd60e51b8152602060048201526011602482015270155cd95c9b985b59481c995c5d5a5c9959607a1b6044820152606401610b61565b600082511161457d5760405162461bcd60e51b8152602060048201526016602482015275111bd8dd5b595b9d081b985b59481c995c5d5a5c995960521b6044820152606401610b61565b6007805490600061458d83615456565b90915550506007546040805161014081018252828152602080820186815282840188905260608301869052336080840152600060a0840181905260c0840181905260e084018190528451808401865281815261010085015284518084018652818152610120850152858152600a90925292902081518155915190919060018201906146189082615561565b506040820151600282019061462d9082615561565b50606082015160038201906146429082615561565b5060808201516004820180546001600160a01b039092166001600160a01b031983168117825560a0850151926001600160a81b03191617600160a01b83600381111561469057614690614aaf565b021790555060c0820151600582015560e0820151600682015561010082015160078201906146be9082615561565b5061012082015160088201906146d49082615561565b5050336000818152600f6020908152604080832080546001810182559084529183209091018590555191925083917f0b226a4a0dab6e15211980ba859fb66f8d7df7c87e5571f95c57bc0e7bf0497c9190a350505050565b6000828152601060205260408120905b81548110156147f0578282828154811061475857614758615486565b9060005260206000200154036147de5781548290614778906001906156ee565b8154811061478857614788615486565b90600052602060002001548282815481106147a5576147a5615486565b9060005260206000200181905550818054806147c3576147c3615701565b600190038181906000526020600020016000905590556147f0565b806147e881615456565b91505061473c565b50505050565b6040518061014001604052806000815260200160608152602001606081526020016060815260200160608152602001606081526020016060815260200160006001600160a01b03168152602001600015158152602001606081525090565b60006020828403121561486657600080fd5b5035919050565b6000815180845260005b8181101561489357602081850181015186830182015201614877565b506000602082860101526020601f19601f83011685010191505092915050565b60006101408c83528060208401526148cd8184018d61486d565b905082810360408401526148e1818c61486d565b905082810360608401526148f5818b61486d565b90508281036080840152614909818a61486d565b905082810360a084015261491d818961486d565b905082810360c0840152614931818861486d565b6001600160a01b03871660e0850152851515610100850152838103610120850152905061495e818561486d565b9d9c50505050505050505050505050565b60006020808301818452808551808352604092508286019150828160051b87010184880160005b838110156149e657888303603f19018552815180518785526149ba8886018261486d565b91890151858303868b01529190506149d2818361486d565b968901969450505090860190600101614996565b509098975050505050505050565b80356001600160a01b0381168114614a0b57600080fd5b919050565b600060208284031215614a2257600080fd5b611422826149f4565b84151581528315156020820152608060408201526000614a4e608083018561486d565b8281036060840152614a60818561486d565b979650505050505050565b6020808252825182820181905260009190848201906040850190845b81811015614aa357835183529284019291840191600101614a87565b50909695505050505050565b634e487b7160e01b600052602160045260246000fd5b60048110614ae357634e487b7160e01b600052602160045260246000fd5b9052565b6000610100808352614afb8184018c61486d565b90508281036020840152614b0f818b61486d565b6001600160a01b038a1660408501529050614b2d6060840189614ac5565b8660808401528560a084015282810360c0840152614b4b818661486d565b905082810360e0840152614b5f818561486d565b9b9a5050505050505050505050565b60008060408385031215614b8157600080fd5b50508035926020909101359150565b634e487b7160e01b600052604160045260246000fd5b6040805190810167ffffffffffffffff81118282101715614bc957614bc9614b90565b60405290565b604051601f8201601f1916810167ffffffffffffffff81118282101715614bf857614bf8614b90565b604052919050565b600082601f830112614c1157600080fd5b813567ffffffffffffffff811115614c2b57614c2b614b90565b614c3e601f8201601f1916602001614bcf565b818152846020838601011115614c5357600080fd5b816020850160208301376000918101602001919091529392505050565b60008060408385031215614c8357600080fd5b823567ffffffffffffffff80821115614c9b57600080fd5b614ca786838701614c00565b93506020850135915080821115614cbd57600080fd5b50614cca85828601614c00565b9150509250929050565b600080600080600080600060e0888a031215614cef57600080fd5b873567ffffffffffffffff80821115614d0757600080fd5b614d138b838c01614c00565b985060208a0135915080821115614d2957600080fd5b614d358b838c01614c00565b975060408a0135915080821115614d4b57600080fd5b614d578b838c01614c00565b965060608a0135915080821115614d6d57600080fd5b614d798b838c01614c00565b955060808a0135915080821115614d8f57600080fd5b614d9b8b838c01614c00565b945060a08a0135915080821115614db157600080fd5b614dbd8b838c01614c00565b935060c08a0135915080821115614dd357600080fd5b50614de08a828b01614c00565b91505092959891949750929550565b602081526000611422602083018461486d565b600080600060608486031215614e1757600080fd5b614e20846149f4565b9250602084013567ffffffffffffffff80821115614e3d57600080fd5b614e4987838801614c00565b93506040860135915080821115614e5f57600080fd5b50614e6c86828701614c00565b9150509250925092565b60008060408385031215614e8957600080fd5b82359150602083013567ffffffffffffffff811115614ea757600080fd5b614cca85828601614c00565b60208101611a198284614ac5565b6000806040808486031215614ed557600080fd5b8335925060208085013567ffffffffffffffff80821115614ef557600080fd5b818701915087601f830112614f0957600080fd5b813581811115614f1b57614f1b614b90565b8060051b614f2a858201614bcf565b918252838101850191858101908b841115614f4457600080fd5b86860192505b83831015614fd857823585811115614f625760008081fd5b8601808d03601f1901891315614f785760008081fd5b614f80614ba6565b8882013587811115614f925760008081fd5b614fa08f8b83860101614c00565b8252508982013587811115614fb55760008081fd5b614fc38f8b83860101614c00565b828b0152508352509186019190860190614f4a565b80985050505050505050509250929050565b60006020808301818452808551808352604092508286019150828160051b87010184880160005b838110156149e657603f1989840301855281516101408151855288820151818a8701526150408287018261486d565b9150508782015185820389870152615058828261486d565b91505060608083015186830382880152615072838261486d565b925050506080808301518683038288015261508d838261486d565b9250505060a080830151868303828801526150a8838261486d565b9250505060c080830151868303828801526150c3838261486d565b9250505060e0808301516150e1828801826001600160a01b03169052565b505061010082810151151590860152610120918201518582039286019290925261510b818361486d565b968901969450505090860190600101615011565b6000806040838503121561513257600080fd5b61513b836149f4565b946020939093013593505050565b60008060006060848603121561515e57600080fd5b83359250602084013591506040840135801515811461517c57600080fd5b809150509250925092565b60006101408c83528060208401526151a18184018d61486d565b905082810360408401526151b5818c61486d565b905082810360608401526151c9818b61486d565b6001600160a01b038a16608085015290506151e760a0840189614ac5565b8660c08401528560e0840152828103610100840152615206818661486d565b905082810361012084015261495e818561486d565b60408152600061522e604083018561486d565b8281036020840152615240818561486d565b95945050505050565b60006020808301818452808551808352604092508286019150828160051b87010184880160005b838110156149e657888303603f1901855281518051845287810151888501528681015115158785015260608082015115159085015260809081015160a0918501829052906152c08186018361486d565b968901969450505090860190600101615270565b8581528460208201528315156040820152821515606082015260a060808201526000614a6060a083018461486d565b60008060006060848603121561531857600080fd5b833567ffffffffffffffff8082111561533057600080fd5b61533c87838801614c00565b94506020860135915080821115614e3d57600080fd5b600181811c9082168061536657607f821691505b60208210810361273857634e487b7160e01b600052602260045260246000fd5b6020808252601390820152724f6e6c7920617070726f7665642062616e6b7360681b604082015260600190565b602080825260139082015272125b9d985b1a590818dd5cdd1bdb595c881251606a1b604082015260600190565b60208082526018908201527f4f6e6c792061646d696e2063616e2063616c6c20746869730000000000000000604082015260600190565b6020808252600f908201526e125b9d985b1a590818985b9ac81251608a1b604082015260600190565b634e487b7160e01b600052601160045260246000fd5b60006001820161546857615468615440565b5060010190565b60008161547e5761547e615440565b506000190190565b634e487b7160e01b600052603260045260246000fd5b60008083546154aa81615352565b600182811680156154c257600181146154d757615506565b60ff1984168752821515830287019450615506565b8760005260208060002060005b858110156154fd5781548a8201529084019082016154e4565b50505082870194505b50929695505050505050565b601f82111561555c57600081815260208120601f850160051c810160208610156155395750805b601f850160051c820191505b8181101561555857828155600101615545565b5050505b505050565b815167ffffffffffffffff81111561557b5761557b614b90565b61558f816155898454615352565b84615512565b602080601f8311600181146155c457600084156155ac5750858301515b600019600386901b1c1916600185901b178555615558565b600085815260208120601f198616915b828110156155f3578886015182559484019460019091019084016155d4565b50858210156156115787850151600019600388901b60f8161c191681555b5050505050600190811b01905550565b60208082526022908201527f437573746f6d6572206e6f742061737369676e656420746f20796f75722062616040820152616e6b60f01b606082015260800190565b600060208083526000845461567781615352565b8084870152604060018084166000811461569857600181146156b2576156e0565b60ff1985168984015283151560051b8901830195506156e0565b896000528660002060005b858110156156d85781548b82018601529083019088016156bd565b8a0184019650505b509398975050505050505050565b81810381811115611a1957611a19615440565b634e487b7160e01b600052603160045260246000fdfea26469706673582212203b668dfb1898baeb5fcf9ffce295164e84dc4e41eb4c72bcaf83c9820509c25264736f6c63430008130033",
  "immutableReferences": {},
  "source": "// SPDX-License-Identifier: MIT\r\npragma solidity ^0.8.19;\r\n\r\ncontract KYCContract {\r\n    // ========== STATE VARIABLES ==========\r\n    \r\n    // Admin related state\r\n    address public admin;\r\n    mapping(address => bool) public isAdmin;\r\n    mapping(address => string) public adminUsernames;\r\n    mapping(address => string) public adminPasswordHashes;\r\n\r\n    // Bank related state\r\n    uint public bankCount = 0;\r\n    uint public pendingBankCount = 0;\r\n    uint public approvedBankCount = 0;\r\n    \r\n    struct Bank {\r\n        uint id;\r\n        string bankNumber;\r\n        string name;\r\n        string country;\r\n        string state;\r\n        string pincode;\r\n        string adminName;\r\n        address walletAddress;\r\n        bool isApproved;\r\n        string passwordHash;\r\n    }\r\n\r\n    // Customer related state\r\n    uint public customerCount = 0;\r\n    \r\n    enum CustomerStatus { \r\n        Pending,\r\n        Approved,\r\n        Rejected,\r\n        Verified\r\n    }\r\n    \r\n    struct Customer {\r\n        uint id;\r\n        string documentName;\r\n        string username;\r\n        string passwordHash;\r\n        address walletAddress;\r\n        CustomerStatus status;\r\n        uint bankId;\r\n        uint approvalDate;\r\n        string remarks;\r\n        string verificationHash;\r\n    }\r\n\r\n    struct Document {\r\n        string docType;\r\n        string docHash;\r\n    }\r\n\r\n    struct BankRequest {\r\n        uint bankId;\r\n        uint requestDate;\r\n        bool responded;\r\n        bool accessGranted;\r\n        string bankName;\r\n    }\r\n\r\n    // ========== MAPPINGS ==========\r\n    \r\n    mapping(uint => Bank) public banks;\r\n    mapping(address => uint) public bankIds;\r\n    mapping(uint => Customer) public customers;\r\n    mapping(uint => Document[]) public customerDocuments;\r\n    mapping(uint => uint[]) public bankCustomers;\r\n    mapping(uint => BankRequest[]) public customerBankRequests;\r\n    mapping(uint => mapping(uint => bool)) public bankCustomerAccess;\r\n    mapping(address => uint[]) public customerWalletMapping;\r\n    \r\n    // Optimized mappings\r\n    mapping(uint => uint[]) public bankPendingRequests; // Bank ID => pending customer IDs\r\n    mapping(uint => uint[]) public bankApprovedCustomers; // Bank ID => approved customer IDs\r\n\r\n    // ========== EVENTS ==========\r\n    \r\n    event AdminAdded(address indexed adminAddress);\r\n    event BankRegistered(uint indexed bankId, address indexed bankAddress);\r\n    event BankApproved(uint indexed bankId, address indexed adminAddress);\r\n    event CustomerRegistered(uint indexed customerId, address indexed customerWallet);\r\n    event CustomerApproved(uint indexed customerId, uint indexed bankId);\r\n    event CustomerRejected(uint indexed customerId, uint indexed bankId);\r\n    event CustomerVerified(uint indexed customerId, string verificationHash);\r\n    event BankRequestedAccess(uint indexed customerId, uint indexed bankId, string bankName);\r\n    event AccessGranted(uint indexed customerId, uint indexed bankId);\r\n    event AccessDenied(uint indexed customerId, uint indexed bankId);\r\n    event DocumentsAdded(uint indexed customerId, uint documentCount);\r\n    event StatusChanged(uint indexed customerId, CustomerStatus newStatus);\r\n\r\n    // ========== MODIFIERS ==========\r\n    \r\n    modifier onlyAdmin() {\r\n        require(isAdmin[msg.sender], \"Only admin can call this\");\r\n        _;\r\n    }\r\n\r\n    modifier onlyApprovedBank() {\r\n        uint bankId = bankIds[msg.sender];\r\n        require(bankId != 0 && banks[bankId].isApproved, \"Only approved banks\");\r\n        _;\r\n    }\r\n\r\n    modifier validCustomer(uint customerId) {\r\n        require(customerId > 0 && customerId <= customerCount, \"Invalid customer ID\");\r\n        _;\r\n    }\r\n\r\n    // ========== CONSTRUCTOR ==========\r\n    \r\n    constructor() {\r\n        admin = msg.sender;\r\n        isAdmin[admin] = true;\r\n    }\r\n\r\n    // ========== ADMIN FUNCTIONS ==========\r\n    \r\n    function adminLogin(string memory username, string memory passwordHash) external view returns (bool) {\r\n        require(isAdmin[msg.sender], \"Not an admin\");\r\n        require(keccak256(bytes(adminUsernames[msg.sender])) == keccak256(bytes(username)), \"Invalid username\");\r\n        require(keccak256(bytes(adminPasswordHashes[msg.sender])) == keccak256(bytes(passwordHash)), \"Invalid password\");\r\n        return true;\r\n    }\r\n\r\n    function addAdmin(address _admin, string memory username, string memory passwordHash) external onlyAdmin {\r\n        isAdmin[_admin] = true;\r\n        adminUsernames[_admin] = username;\r\n        adminPasswordHashes[_admin] = passwordHash;\r\n        emit AdminAdded(_admin);\r\n    }\r\n\r\n    function approveBank(uint _bankId) external onlyAdmin {\r\n        require(_bankId > 0 && _bankId <= bankCount, \"Invalid bank ID\");\r\n        require(!banks[_bankId].isApproved, \"Bank already approved\");\r\n\r\n        banks[_bankId].isApproved = true;\r\n        approvedBankCount++;\r\n        pendingBankCount--;\r\n        emit BankApproved(_bankId, msg.sender);\r\n    }\r\n\r\n    // ========== BANK FUNCTIONS ==========\r\n    \r\n    function registerBank(\r\n        string memory _bankNumber,\r\n        string memory _name,\r\n        string memory _country,\r\n        string memory _state,\r\n        string memory _pincode,\r\n        string memory _adminName,\r\n        string memory _passwordHash\r\n    ) external {\r\n        require(bankIds[msg.sender] == 0, \"Bank already registered\");\r\n        require(bytes(_bankNumber).length > 0, \"Bank number required\");\r\n        require(bytes(_name).length > 0, \"Bank name required\");\r\n\r\n        bankCount++;\r\n        pendingBankCount++;\r\n        uint newBankId = bankCount;\r\n\r\n        banks[newBankId] = Bank({\r\n            id: newBankId,\r\n            bankNumber: _bankNumber,\r\n            name: _name,\r\n            country: _country,\r\n            state: _state,\r\n            pincode: _pincode,\r\n            adminName: _adminName,\r\n            walletAddress: msg.sender,\r\n            isApproved: false,\r\n            passwordHash: _passwordHash\r\n        });\r\n\r\n        bankIds[msg.sender] = newBankId;\r\n        emit BankRegistered(newBankId, msg.sender);\r\n    }\r\n\r\n    function bankLogin(string memory _name, string memory _passwordHash) external view returns (bool) {\r\n        uint bankId = bankIds[msg.sender];\r\n        require(bankId != 0, \"Bank not registered\");\r\n        require(keccak256(bytes(banks[bankId].name)) == keccak256(bytes(_name)), \"Invalid bank name\");\r\n        require(keccak256(bytes(banks[bankId].passwordHash)) == keccak256(bytes(_passwordHash)), \"Invalid password\");\r\n        require(banks[bankId].isApproved, \"Bank not approved by admin\");\r\n        return true;\r\n    }\r\n\r\n    function approveCustomer(uint customerId, string memory remarks) external onlyApprovedBank validCustomer(customerId) {\r\n        Customer storage customer = customers[customerId];\r\n        uint bankId = bankIds[msg.sender];\r\n        \r\n        require(customer.bankId == bankId, \"Customer not assigned to your bank\");\r\n        require(customer.status == CustomerStatus.Pending, \"Customer not pending\");\r\n\r\n        customer.status = CustomerStatus.Approved;\r\n        customer.approvalDate = block.timestamp;\r\n        customer.remarks = remarks;\r\n        \r\n        // Update optimized mappings\r\n        removePendingRequest(bankId, customerId);\r\n        bankApprovedCustomers[bankId].push(customerId);\r\n        \r\n        emit CustomerApproved(customerId, bankId);\r\n        emit StatusChanged(customerId, CustomerStatus.Approved);\r\n    }\r\n\r\n    function rejectCustomer(uint customerId, string memory remarks) external onlyApprovedBank validCustomer(customerId) {\r\n        Customer storage customer = customers[customerId];\r\n        uint bankId = bankIds[msg.sender];\r\n        \r\n        require(customer.bankId == bankId, \"Customer not assigned to your bank\");\r\n        require(customer.status == CustomerStatus.Pending, \"Customer not pending\");\r\n\r\n        customer.status = CustomerStatus.Rejected;\r\n        customer.remarks = remarks;\r\n        \r\n        // Update optimized mappings\r\n        removePendingRequest(bankId, customerId);\r\n        \r\n        emit CustomerRejected(customerId, bankId);\r\n        emit StatusChanged(customerId, CustomerStatus.Rejected);\r\n    }\r\n\r\n    // Bank requests access to customer documents\r\n    function requestCustomerAccess(uint customerId) external onlyApprovedBank validCustomer(customerId) {\r\n        uint bankId = bankIds[msg.sender];\r\n        require(!hasPendingRequest(customerId, bankId), \"Request already pending\");\r\n        \r\n        customerBankRequests[customerId].push(BankRequest({\r\n            bankId: bankId,\r\n            requestDate: block.timestamp,\r\n            responded: false,\r\n            accessGranted: false,\r\n            bankName: banks[bankId].name\r\n        }));\r\n        \r\n        emit BankRequestedAccess(customerId, bankId, banks[bankId].name);\r\n    }\r\n\r\n    // Bank views customer documents (only if approved)\r\n    function getCustomerDocumentsForBank(uint customerId) external view onlyApprovedBank validCustomer(customerId) returns (Document[] memory) {\r\n        uint bankId = bankIds[msg.sender];\r\n        require(bankCustomerAccess[bankId][customerId], \"Access not granted\");\r\n        return customerDocuments[customerId];\r\n    }\r\n\r\n    // ========== CUSTOMER FUNCTIONS ==========\r\n    \r\n    function registerCustomer(\r\n        string memory _username,\r\n        string memory _documentName,\r\n        string memory _passwordHash\r\n    ) external {\r\n        require(bytes(_username).length > 0, \"Username required\");\r\n        require(bytes(_documentName).length > 0, \"Document name required\");\r\n\r\n        customerCount++;\r\n        uint newCustomerId = customerCount;\r\n\r\n        customers[newCustomerId] = Customer({\r\n            id: newCustomerId,\r\n            documentName: _documentName,\r\n            username: _username,\r\n            passwordHash: _passwordHash,\r\n            walletAddress: msg.sender,\r\n            status: CustomerStatus.Pending,\r\n            bankId: 0,\r\n            approvalDate: 0,\r\n            remarks: \"\",\r\n            verificationHash: \"\"\r\n        });\r\n\r\n        customerWalletMapping[msg.sender].push(newCustomerId);\r\n        emit CustomerRegistered(newCustomerId, msg.sender);\r\n    }\r\n\r\n    function customerLogin(string memory _username, string memory _passwordHash) external view returns (bool) {\r\n        uint[] memory customerIds = customerWalletMapping[msg.sender];\r\n        require(customerIds.length > 0, \"No customers for this wallet\");\r\n        \r\n        for (uint i = 0; i < customerIds.length; i++) {\r\n            Customer memory customer = customers[customerIds[i]];\r\n            if (keccak256(bytes(customer.username)) == keccak256(bytes(_username)) && \r\n                keccak256(bytes(customer.passwordHash)) == keccak256(bytes(_passwordHash))) {\r\n                return true;\r\n            }\r\n        }\r\n        return false;\r\n    }\r\n\r\n    function submitKYCRequest(\r\n        uint _bankId,\r\n        Document[] memory _documents\r\n    ) external {\r\n        require(_bankId > 0 && _bankId <= bankCount, \"Invalid bank ID\");\r\n        require(banks[_bankId].isApproved, \"Bank not approved\");\r\n        \r\n        uint[] memory customerIds = customerWalletMapping[msg.sender];\r\n        require(customerIds.length > 0, \"No customer profile\");\r\n        \r\n        uint customerId = customerIds[0];\r\n        Customer storage customer = customers[customerId];\r\n        \r\n        // Store documents\r\n        for (uint i = 0; i < _documents.length; i++) {\r\n            customerDocuments[customerId].push(_documents[i]);\r\n        }\r\n        \r\n        // Update customer status and bank assignment\r\n        customer.bankId = _bankId;\r\n        customer.status = CustomerStatus.Pending;\r\n        \r\n        // Update optimized mappings\r\n        bankPendingRequests[_bankId].push(customerId);\r\n        \r\n        emit BankRequestedAccess(customerId, _bankId, banks[_bankId].name);\r\n        emit DocumentsAdded(customerId, _documents.length);\r\n        emit StatusChanged(customerId, CustomerStatus.Pending);\r\n    }\r\n\r\n    // Customer responds to bank request\r\n   function respondToBankRequest(uint customerId, uint bankId, bool grantAccess) external {\r\n    // Check if the customerId belongs to the msg.sender\r\n    bool isCustomer = false;\r\n    uint[] storage customerIds = customerWalletMapping[msg.sender];\r\n    for (uint i = 0; i < customerIds.length; i++) {\r\n        if (customerIds[i] == customerId) {\r\n            isCustomer = true;\r\n            break;\r\n        }\r\n    }\r\n    require(isCustomer, \"Not your customer profile\");\r\n    \r\n    BankRequest[] storage requests = customerBankRequests[customerId];\r\n    for (uint i = 0; i < requests.length; i++) {\r\n        if (requests[i].bankId == bankId && !requests[i].responded) {\r\n            requests[i].responded = true;\r\n            requests[i].accessGranted = grantAccess;\r\n            \r\n            if (grantAccess) {\r\n                bankCustomerAccess[bankId][customerId] = true;\r\n                emit AccessGranted(customerId, bankId);\r\n            } else {\r\n                emit AccessDenied(customerId, bankId);\r\n            }\r\n            return;\r\n        }\r\n    }\r\n    revert(\"No pending request found\");\r\n}\r\n\r\n    // ========== VIEW FUNCTIONS ==========\r\n    \r\n    function getPendingBanks() public view onlyAdmin returns (Bank[] memory) {\r\n        Bank[] memory pending = new Bank[](pendingBankCount);\r\n        uint counter = 0;\r\n        for (uint i = 1; i <= bankCount; i++) {\r\n            if (!banks[i].isApproved) {\r\n                pending[counter] = banks[i];\r\n                counter++;\r\n            }\r\n        }\r\n        return pending;\r\n    }\r\n\r\n    function getApprovedBanks() public view returns (Bank[] memory) {\r\n        Bank[] memory approved = new Bank[](approvedBankCount);\r\n        uint counter = 0;\r\n        for (uint i = 1; i <= bankCount; i++) {\r\n            if (banks[i].isApproved) {\r\n                approved[counter] = banks[i];\r\n                counter++;\r\n            }\r\n        }\r\n        return approved;\r\n    }\r\n\r\n    function getBankStatus(address _bankAddress) public view returns (\r\n        bool isRegistered,\r\n        bool isApproved,\r\n        string memory name,\r\n        string memory email\r\n    ) {\r\n        uint bankId = bankIds[_bankAddress];\r\n        if (bankId == 0) return (false, false, \"\", \"\");\r\n        Bank memory bank = banks[bankId];\r\n        return (true, bank.isApproved, bank.name, bank.adminName);\r\n    }\r\n\r\n    function isBankApproved(address _bankAddress) public view returns (bool) {\r\n        uint bankId = bankIds[_bankAddress];\r\n        return bankId != 0 && banks[bankId].isApproved;\r\n    }\r\n\r\n    function checkBankRegistration(address _bankAddress) public view returns (bool) {\r\n        return bankIds[_bankAddress] != 0;\r\n    }\r\n\r\n    function getCustomerStatus(address _customerAddress) external view returns (CustomerStatus) {\r\n        uint[] memory customerIds = customerWalletMapping[_customerAddress];\r\n        require(customerIds.length > 0, \"No customer linked to this wallet\");\r\n        return customers[customerIds[0]].status;\r\n    }\r\n\r\n    function getCustomerDocuments(uint customerId) public view validCustomer(customerId) returns (Document[] memory) {\r\n        return customerDocuments[customerId];\r\n    }\r\n\r\n    function getCustomerBankRequests(uint customerId) public view validCustomer(customerId) returns (BankRequest[] memory) {\r\n        return customerBankRequests[customerId];\r\n    }\r\n\r\n    function getBankPendingRequests(uint bankId) external view returns (uint[] memory) {\r\n        require(bankId > 0 && bankId <= bankCount, \"Invalid bank ID\");\r\n        return bankPendingRequests[bankId];\r\n    }\r\n\r\n    function getBankApprovedCustomers(uint bankId) external view returns (uint[] memory) {\r\n        require(bankId > 0 && bankId <= bankCount, \"Invalid bank ID\");\r\n        return bankApprovedCustomers[bankId];\r\n    }\r\n\r\n    function hasPendingRequest(uint customerId, uint bankId) public view returns (bool) {\r\n        BankRequest[] storage requests = customerBankRequests[customerId];\r\n        for (uint i = 0; i < requests.length; i++) {\r\n            if (requests[i].bankId == bankId && !requests[i].responded) {\r\n                return true;\r\n            }\r\n        }\r\n        return false;\r\n    }\r\n\r\n    function getCustomerId(address wallet) external view returns (uint) {\r\n        uint[] memory ids = customerWalletMapping[wallet];\r\n        return ids.length > 0 ? ids[0] : 0;\r\n    }\r\n\r\n    function getCustomerDetails(uint customerId) external view returns (\r\n        string memory username,\r\n        string memory documentName,\r\n        address walletAddress,\r\n        CustomerStatus status,\r\n        uint bankId,\r\n        uint approvalDate,\r\n        string memory remarks,\r\n        string memory verificationHash\r\n    ) {\r\n        Customer memory customer = customers[customerId];\r\n        return (\r\n            customer.username,\r\n            customer.documentName,\r\n            customer.walletAddress,\r\n            customer.status,\r\n            customer.bankId,\r\n            customer.approvalDate,\r\n            customer.remarks,\r\n            customer.verificationHash\r\n        );\r\n    }\r\n\r\n    function getCustomerIdByAddress(address wallet) external view returns (uint) {\r\n        uint[] memory ids = customerWalletMapping[wallet];\r\n        return ids.length > 0 ? ids[0] : 0;\r\n    }\r\n\r\n    function getCustomerStatusById(uint customerId) external view returns (uint) {\r\n        return uint(customers[customerId].status);\r\n    }\r\n\r\n    // ========== PRIVATE FUNCTIONS ==========\r\n    \r\n    function removePendingRequest(uint bankId, uint customerId) private {\r\n        uint[] storage pending = bankPendingRequests[bankId];\r\n        for (uint i = 0; i < pending.length; i++) {\r\n            if (pending[i] == customerId) {\r\n                pending[i] = pending[pending.length - 1];\r\n                pending.pop();\r\n                break;\r\n            }\r\n        }\r\n    }\r\n}",
  "sourcePath": "C:\\Users\\PRARAMBHI\\OneDrive\\Desktop\\kyc-verification\\contracts\\KYCContract.sol",
  "compiler": {
    "name": "solc",
    "version": "0.8.19+commit.7dd6d404.Emscripten.clang"
  },
  "schemaVersion": "3.4.16",
  "updatedAt": "2025-04-24T05:04:57.281Z",
  "networkType": "ethereum",
  "devdoc": {
    "kind": "dev",
    "methods": {},
    "version": 1
  },
  "userdoc": {
    "kind": "user",
    "methods": {},
    "version": 1
  }
}